:100000000C942A000C9447000C9447000C94470071
:100010000C9447000C9447000C9410010C9447007A
:100020000C9447000C9447000C9447000C94470034
:100030000C9447000C9447000C9447000C94470024
:100040000C9447000C9447000C9447000C94470014
:100050000C94470011241FBECFE5D4E0DEBFCDBF16
:1000600010E0A0E6B0E0E4E4F4E002C005900D92F8
:10007000A437B107D9F720E0A4E7B0E001C01D9292
:10008000AA37B207E1F70E941A010C9420020C94DF
:10009000000080FF02C0AD9A01C0AD9881FF02C090
:1000A000AC9A01C0AC9882FF02C0AB9A01C0AB9879
:1000B00083FF02C0AA9A0895AA980895CF93C82FE3
:1000C00082958F700E944900AE9AAE988C2F0E9444
:1000D0004900AE9AAE9887EC90E00197F1F700C026
:1000E0000000CF910895AF980C945E00AF9A0C94E5
:1000F0005E00CF93DF93EC018991882319F00E9471
:100100007600FACFDF91CF91089590E4699F800D3A
:10011000112480680C947300EF92FF921F93CF9389
:10012000DF931F92CDB7DEB7182F862F642F9983E8
:100130000E948500E12E9981F92EF70181917F01BE
:10014000882319F00E947600F8CF0F90DF91CF91AD
:100150001F91FF90EF90089581E00E9473008FE35C
:100160009FE10197F1F700C00000089582E00E942E
:1001700073008FE39FE10197F1F700C0000008953D
:10018000CF93A59AA49AA39AA29AA69AA79A8FE522
:100190009AEE0197F1F700C00000AF98AE98C3E067
:1001A00083E00E944900AE9AAE988FE19EE40197E9
:1001B000F1F700C00000C15099F782E00E944900A9
:1001C000AE9AAE988FE39FE10197F1F700C000006F
:1001D00088E20E94730088E00E94730081E00E9420
:1001E00073008FE39FE10197F1F700C0000086E004
:1001F0000E9473008CE0CF910C9473004AE064E796
:1002000070E00E94EB0184E790E0089597B1987F39
:10021000892B87B9369A3699FECF84B195B1089566
:100220001F920F920FB60F9211240F900FBE0F90D6
:100230001F901895CF93DF931F92CDB7DEB78FEF46
:1002400084BB15BA8CEF81BB83E082BB379A86B141
:10025000876086B93E9A0E94C00080E690E00E94C6
:1002600079008EB588608EBD8EB584608EBD89B7ED
:10027000806189BF84E294EF9BBD8ABD78948AE057
:10028000D82E9AE0E92EF12C41E060E089E690E07A
:100290000E948C0080E00E9406010E94FE0041E066
:1002A00060E00E948C0041E065E089E690E00E94F9
:1002B0008C0081E00E9406010E94FE0041E065E0A2
:1002C0000E948C0080E00E9406018C0181E00E9467
:1002D0000601A801480F591FD49E9001D59E300DEC
:1002E0001124B801681B790BC9010E94C3015B018D
:1002F00040E065E084E690E00E948C0040E067E02A
:1003000087E690E00E948C001A141B0464F5C50176
:10031000B7010E94C3018B0146EF46039001479F3E
:10032000300D1124A20EB31ECB010E94FE0040E04E
:1003300067E00E948C000A30110514F468E001C0E7
:1003400069E040E08EE690E00E948C000A301105E2
:1003500014F469E001C06AE0C50169830E94FE00EF
:1003600040E0698104C040E067E080E790E00E94DF
:100370008C008FEF93EC29E0815090402040E1F712
:1003800000C0000081CF97FB072E16F4009407D021
:1003900077FD09D00E94D70107FC05D03EF4909567
:1003A00081959F4F0895709561957F4F0895AA1B81
:1003B000BB1B51E107C0AA1FBB1FA617B70710F050
:1003C000A61BB70B881F991F5A95A9F78095909582
:1003D000BC01CD010895BB274A3031F4992322F4A2
:1003E000BDE2909581959F4F0C94F701BB27FB01CF
:1003F0005527AA27880F991FAA1FA41710F0A41B1E
:1004000083955051B9F7A05DAA3308F0A95DA19377
:10041000009779F7B111B1931192CB010C941002AE
:10042000DC01FC01672F71917723E1F7329704C05B
:100430007C916D9370836291AE17BF07C8F30895E6
:04044000F894FFCF5E
:1004440053575200313A00202020202020002E0053
:04045400696E660067
:00000001FF
